:100000000C945D000C9485000C9485000C94850084
:100010000C9485000C9485000C9485000C9485004C
:100020000C9485000C9485000C9485000C9485003C
:100030000C9485000C9485000C9485000C9485002C
:100040000C94FE020C9485000C946E030C944803EF
:100050000C9485000C9485000C9485000C9485000C
:100060000C9485000C9485000000000024002700FB
:100070002A0000000000250028002B0004040404CE
:100080000404040402020202020203030303030342
:10009000010204081020408001020408102001021F
:1000A00004081020000000080002010000030407FB
:1000B00000000000000000007C0511241FBECFEFEF
:1000C000D8E0DEBFCDBF21E0ACE3B1E001C01D92BE
:1000D000A63EB207E1F711E0A0E0B1E0E0E6F0E112
:1000E00002C005900D92AC33B107D9F710E0CDE511
:1000F000D0E004C02197FE010E942806CC35D1072C
:10010000C9F70E94A0030C942E080C940000E6EAA4
:10011000F0E02491E2E9F0E09491EEE7F0E0E49180
:10012000EE23C9F0222339F0233001F1A8F4213065
:1001300019F1223029F1F0E0EE0FFF1FEE58FF4FCA
:10014000A591B4912FB7F894EC91811126C09095A8
:100150009E239C932FBF08952730A9F02830C9F023
:10016000243049F7209180002F7D03C0209180002A
:100170002F7720938000DFCF24B52F7724BDDBCFEE
:1001800024B52F7DFBCF2091B0002F772093B000B6
:10019000D2CF2091B0002F7DF9CF9E2BDACF3FB781
:1001A000F89480913D0190913E01A0913F01B09162
:1001B000400126B5A89B05C02F3F19F00196A11D4F
:1001C000B11D3FBFBA2FA92F982F8827BC01CD01A1
:1001D000620F711D811D911D42E0660F771F881F00
:1001E000991F4A95D1F708958F929F92AF92BF922F
:1001F000CF92DF92EF92FF926B017C010E94CF00C1
:100200004B015C01C114D104E104F104B9F00E9476
:10021000CF00681979098A099B09683E73408105F6
:10022000910580F321E0C21AD108E108F10888EEB7
:10023000880E83E0981EA11CB11CE4CFFF90EF90C4
:10024000DF90CF90BF90AF909F908F900895AF9226
:10025000BF92CF92DF92EF92FF920F931F93CF93B3
:10026000DF936C017B018B01040F151FEB015E0115
:10027000AE18BF08C017D10759F06991D601ED91AA
:10028000FC910190F081E02DC6010995892B79F749
:10029000C501DF91CF911F910F91FF90EF90DF90FB
:1002A000CF90BF90AF900895FC01538D448D252FC2
:1002B00030E0842F90E0821B930B541710F0CF9600
:1002C000089501970895FC01918D828D981761F032
:1002D000A28DAE0FBF2FB11D5D968C91928D9F5F49
:1002E0009F73928F90E008958FEF9FEF08952FB73F
:1002F000F8948091410190914201A0914301B09105
:1003000044012FBF80934D0190934E01A0934F0164
:10031000B093500185E491E00E94630197FF26C0ED
:100320002FB7F8948091410190914201A09143012F
:10033000B09144012FBF40914D0150914E01609109
:100340004F0170915001841B950BA60BB70B409188
:10035000490150914A0160914B0170914C01841701
:100360009507A607B707B0F28FEF9FEF0895FC013E
:10037000918D828D981731F0828DE80FF11D858D5A
:1003800090E008958FEF9FEF0895FC01918D228DED
:10039000892F90E0805C9F4F821B91098F73992772
:1003A000089585E491E00E94C50121E0892B09F4BC
:1003B00020E0822F089580E090E0892B29F00E94B0
:1003C000D10181110C9400000895FC01A48DA80FA7
:1003D000B92FB11DA35ABF4F2C91848D90E0019687
:1003E0008F739927848FA689B7892C93A089B189A7
:1003F0008C91837080648C93938D848D981306C048
:100400000288F389E02D80818F7D80830895EF92AB
:10041000FF920F931F93CF93DF93EC0181E0888FBE
:100420009B8D8C8D98131AC0E889F989808185FF8E
:1004300015C09FB7F894EE89FF896083E889F98930
:1004400080818370806480839FBF81E090E0DF9132
:10045000CF911F910F91FF90EF900895F62E0B8D85
:1004600010E00F5F1F4F0F731127E02E8C8D8E1140
:100470000CC00FB607FCFACFE889F989808185FFA7
:10048000F5CFCE010E94E501F1CFEB8DEC0FFD2FF2
:10049000F11DE35AFF4FF0829FB7F8940B8FEA8962
:1004A000FB8980818062CFCFCF93DF93EC01888D71
:1004B0008823B9F0AA89BB89E889F9898C9185FDDF
:1004C00003C0808186FD0DC00FB607FCF7CF8C916D
:1004D00085FFF2CF808185FFEDCFCE010E94E5013F
:1004E000E9CFDF91CF910895CF93DF93FC01019085
:1004F0000020E9F73197AF01481B590BBC0185E497
:1005000091E00E942701EC0142E050E068E171E0D7
:1005100085E491E00E9427018C0F9D1FDF91CF9110
:1005200008950F931F93CF93DF93EC0188819981F6
:10053000009759F02A813B812617370730F081E078
:10054000DF91CF911F910F9108958B016F5F7F4FC6
:100550000E945307009759F0998388831B830A836D
:100560002C813D81232B59F7FC011082E8CF80E0DC
:10057000E7CFCF93DF93EC0188819981009711F049
:100580000E94CA06198218821D821C821B821A824E
:10059000DF91CF910895EF92FF920F931F93CF9326
:1005A000DF938C017B01EB0109900020E9F7219793
:1005B000C61BD70BBE010E949102811109C0C80160
:1005C000DF91CF911F910F91FF90EF900C94B902A2
:1005D000F801D583C483B70180819181DF91CF91E8
:1005E0001F910F91FF90EF900C941908FC018081EE
:1005F0009181009711F00C94CA0608951F920F92F2
:100600000FB60F9211242F933F938F939F93AF9325
:10061000BF938091410190914201A0914301B0911B
:10062000440130913C0123E0230F2D3758F501960A
:10063000A11DB11D20933C01809341019093420183
:10064000A0934301B093440180913D0190913E01FC
:10065000A0913F01B09140010196A11DB11D809371
:100660003D0190933E01A0933F01B0934001BF91A3
:10067000AF919F918F913F912F910F900FBE0F904F
:100680001F90189526E8230F0296A11DB11DD2CF09
:100690001F920F920FB60F9211242F933F934F93F7
:1006A0005F936F937F938F939F93AF93BF93EF93DA
:1006B000FF9385E491E00E94E501FF91EF91BF91E6
:1006C000AF919F918F917F916F915F914F913F91EA
:1006D0002F910F900FBE0F901F9018951F920F92A1
:1006E0000FB60F9211242F938F939F93EF93FF9345
:1006F000E0915501F09156018081E0915B01F0910C
:100700005C0182FD1BC0908180915E018F5F8F73C1
:1007100020915F01821741F0E0915E01F0E0EB5B18
:10072000FE4F958F80935E01FF91EF919F918F9186
:100730002F910F900FBE0F901F9018958081F4CFCE
:10074000CF93DF93CDB7DEB72C970FB6F894DEBF0B
:100750000FBECDBF789484B5826084BD84B58160BE
:1007600084BD85B5826085BD85B5816085BD80917C
:100770006E00816080936E001092810080918100F4
:1007800082608093810080918100816080938100EC
:10079000809180008160809380008091B1008460AE
:1007A0008093B1008091B00081608093B00080910F
:1007B0007A00846080937A0080917A0082608093CE
:1007C0007A0080917A00816080937A0080917A002B
:1007D000806880937A001092C100E2E9F0E02491F1
:1007E000EEE7F0E08491882399F090E0880F991F5C
:1007F000FC01E859FF4FA591B491FC01EE58FF4F61
:10080000859194918FB7F894EC91E22BEC938FBF84
:1008100080E00E948700E0915501F091560182E04E
:100820008083E0915101F09152011082E0915301D7
:10083000F091540180E1808310925D01E0915901B3
:10084000F0915A0186E08083E0915701F0915801C0
:10085000808180618083E0915701F091580180810F
:1008600088608083E0915701F09158018081806811
:100870008083E0915701F091580180818F7D8083C2
:100880008BE191E00E94740220E0A22E20E0B22EC3
:1008900085E491E00E94C501892B09F4DEC0188629
:1008A0001F821A8619861C861B866AE171E0CE01BA
:1008B00007960E94CB020E94770197FD1EC08A30E6
:1008C0009105D9F089831A820B851C850F5F1F4F14
:1008D000B801CE0107960E949102882361F32F810F
:1008E00038858B859C85BE016F5F7F4F820F931F7C
:1008F0000E9419081C870B87DECFCF80D884C114D3
:10090000D10439F00B851C8576010115110509F01C
:10091000B1C01A8219821C821B821E821D8261E272
:1009200071E0CE0101960E94CB024D815E818B85E4
:100930009C858417950770F08F819885009751F0FA
:1009400069817A816115710529F00E94200811E002
:10095000892B09F010E0CE0101960E94F6021123C6
:1009600009F477C0CB84DC8486E0882E912CF6E0F5
:10097000CF16D10420F4460196E0C92ED12C1A825C
:1009800019821C821B821E821D826AE171E0CE01E7
:1009900001960E94CB020B851C858016910650F5AE
:1009A000C016D10608F48601EF81F885E00FF11F2B
:1009B00070801082EF80F884E80CF91CE114F104D7
:1009C00079F0F70101900020E9F731976F01CE1817
:1009D000DF08B601CE0101960E949102811180C00C
:1009E000CE0101960E94B9028F819885080F191FC8
:1009F000F801708289819A81009709F479C00E9478
:100A0000A9056B01CE0101960E94F60203E010E0F9
:100A10000D2C000CEE08FF0881E00E94870088E2A0
:100A200091E00E947402C701B6010E94F40080E0C8
:100A30000E9487008FE291E00E947402C701B60114
:100A40000E94F4000150110939F787E391E00E94F8
:100A50007402CE0107960E94F602A114B10409F4B3
:100A600017CF0E94D101882309F412CF0E94000001
:100A70000FCF740147018FEF881A980AF701808120
:100A8000082E000C990B0E94E505892B91F7015067
:100A900011090C0D1D1DF8018081082E000C990B09
:100AA0000E94E505892B31F00E151F0518F0015045
:100AB0001109F1CFA8014F5F5F4F4E195F095C87A5
:100AC0004B87CE14DF0420F4B701C6010E94100842
:100AD000EF81F8858B859C85E80FF91F108219CF6F
:100AE000DE82CD82B70189819A810E9419087CCF6C
:100AF00060E070E0CB0185CFE5E4F1E01382128283
:100B000088EE93E0A0E0B0E084839583A683B7836A
:100B10008AE091E09183808385EC90E095878487DB
:100B200084EC90E09787868780EC90E0918B808BB7
:100B300081EC90E0938B828B82EC90E0958B848BA0
:100B400086EC90E0978B868B118E128E138E148E0E
:100B500008951F93FC0199278827BC01E8941191FF
:100B60001032E9F3193010F01E30C8F31B3251F087
:100B70001D3249F4689406C00E94D005610F711DB2
:100B8000811D911D119110531A30B0F33EF49095D0
:100B90008095709561957F4F8F4F9F4F1F9108955E
:100BA000592F482F372F262F660F771F881F991F21
:100BB000660F771F881F991F620F731F841F951F71
:100BC000660F771F881F991F089591110C94EE05E9
:100BD000803219F089508550C8F7089599278827E1
:100BE00008952F923F924F925F926F927F928F92D1
:100BF0009F92AF92BF92CF92DF92EF92FF920F93AC
:100C00001F93CF93DF93CDB7DEB7CA1BDB0B0FB6B5
:100C1000F894DEBF0FBECDBF09942A883988488872
:100C20005F846E847D848C849B84AA84B984C88408
:100C3000DF80EE80FD800C811B81AA81B981CE0FFF
:100C4000D11D0FB6F894DEBF0FBECDBFED010895E4
:100C5000EE0FFF1F0590F491E02D09940F931F9361
:100C6000CF93DF938230910510F482E090E0E09121
:100C7000E401F091E50130E020E0B0E0A0E0309741
:100C800099F42115310509F44AC0281B390B243089
:100C90003105D8F58A819B816115710589F1FB01C8
:100CA00093838283FE0111C04081518102811381AF
:100CB00048175907E0F04817590799F4109761F061
:100CC00012960C93129713961C933296CF01DF91D4
:100CD000CF911F910F9108950093E4011093E501C6
:100CE000F4CF2115310551F04217530738F0A9010F
:100CF000DB019A01BD01DF01F801C1CFEF01F9CF9E
:100D00009093E5018093E401CDCFFE01E20FF31F44
:100D1000819391932250310939832883D7CF209131
:100D2000E2013091E301232B41F420910201309143
:100D300003013093E3012093E201209100013091FF
:100D400001012115310541F42DB73EB74091040151
:100D500050910501241B350BE091E201F091E30174
:100D6000E217F307A0F42E1B3F0B2817390778F082
:100D7000AC014E5F5F4F2417350748F04E0F5F1FE1
:100D80005093E3014093E201819391939FCFF0E070
:100D9000E0E09CCFCF93DF930097E9F0FC0132971E
:100DA00013821282A091E401B091E501ED0130E0DF
:100DB00020E01097A1F420813181820F931F2091B0
:100DC000E2013091E3012817390709F061C0F0937F
:100DD000E301E093E201DF91CF910895EA01CE179C
:100DE000DF07E8F54A815B819E0141155105B1F7A6
:100DF000E901FB83EA8349915991C40FD51FEC1790
:100E0000FD0761F4808191810296840F951FE901AD
:100E100099838883828193819B838A83F0E0E0E0D9
:100E200012968D919C9113970097B9F52D913C9155
:100E30001197CD010296820F931F2091E20130910C
:100E4000E3012817390739F6309751F51092E5017B
:100E50001092E401B093E301A093E201BCCFD383ED
:100E6000C28340815181840F951FC817D90761F44F
:100E70004E5F5F4F88819981480F591F518340838E
:100E80008A819B81938382832115310509F0B0CF3C
:100E9000F093E501E093E4019ECFFD01DC01C0CFBA
:100EA00013821282D7CFB0E0A0E0E9E5F7E00C941E
:100EB000F3058C01009751F4CB010E942E068C01A2
:100EC000C801CDB7DEB7E0E10C940F06FC01E60FD8
:100ED000F71F9C0122503109E217F30708F49DC067
:100EE000D901CD91DC911197C617D70798F0C5307D
:100EF000D10530F3CE0104978617970708F3C61B78
:100F0000D70B2297C193D1936D937C93CF010E940D
:100F1000CA06D6CF5B01AC1ABD0A4C018C0E9D1ED1
:100F2000A091E401B091E501512C412CF12CE12C70
:100F3000109731F58091E2019091E30188159905B0
:100F400009F05CC04616570608F058C080910001B1
:100F500090910101009741F48DB79EB74091040133
:100F600050910501841B950BE817F90708F055C04F
:100F7000F093E301E093E201F90171836083A0CF74
:100F80008D919C91119712966C90129713967C906C
:100F90001397A815B90559F56C0142E0C40ED11C90
:100FA000CA14DB0420F1AC014A195B09DA0112967C
:100FB000159780F06282738251834083D9016D93CB
:100FC0007C93E114F10471F0D7011396FC93EE9336
:100FD000129776CF22968C0F9D1FF9019183808303
:100FE000F301EFCFF093E501E093E40169CF4816F8
:100FF000590608F42C017D01D3019ACFCB010E9440
:101000002E067C01009749F0AE01B8010E9410083D
:10101000C8010E94CA06870153CF10E000E050CFFC
:10102000FB01DC0102C001900D9241505040D8F705
:101030000895FB01DC0101900D920020E1F7089575
:10104000FB01DC014150504030F08D91019080193E
:1010500019F40020B9F7881B990B0895F894FFCF75
:101060000000E60180000000000007022701540193
:101070005402C5016301B7010D0A005245414459AC
:1010800000424C494E4B3A004C4544204F4E004CD8
:0C1090004544204F464600444F4E4500AA
:00000001FF
